:0418400002EF2DF096
:08184800046ED8CF05F0E0CFDB
:1018500006F00001E9CF0CF0EACF07F0E1CF08F085
:10186000E2CF09F0D9CF0AF0DACF0BF0F3CF12F0C4
:10187000F4CF13F0FACF14F0F5CF15F0F6CF16F041
:10188000F7CF17F000C00EF001C00FF002C010F04B
:1018900003C011F0F2AA50EF0CF0F2B418EF16F0FA
:1018A0009DA056EF0CF09EB0F8EF17F09DA25CEFF4
:1018B0000CF09EB293EF18F0A0AA62EF0CF0A1BA60
:1018C000CAEF14F00EC000F00FC001F010C002F01B
:1018D00011C003F00CC0E9FF07C0EAFF078E08C083
:1018E000E1FF09C0E2FF0AC0D9FF0BC0DAFF12C056
:1018F000F3FF13C0F4FF14C0FAFF15C0F5FF16C0C4
:10190000F6FF17C0F7FF045006C0E0FF05C0D8FF80
:101910001000F76A220FF66E190EF7220900F55033
:101920001200000302FFFFFFFFFFFFFFFFFFFFFFAB
:10193000FFFFF76A420FF66E190EF7220900F55005
:10194000120000FF02FFFFFFFFFFFFFFFFFFFFFF8F
:10195000FFFFF76A620FF66E190EF7220900F550C5
:1019600012004000080040000000000000000000DD
:101970000000000000000000000000000000000067
:101980000000F76A920FF66E190EF7220900F55063
:1019900012004000000040000000000000000000B5
:1019A0000000000000000000000000000000000037
:1019B0000000F76AC20FF66E190EF7220900F55003
:1019C00012000902430002010080320904000001F4
:1019D000020201000524001001042402020524066D
:1019E00000010524010001070581030800FA09042C
:1019F0000100020A0000000705020240000107057D
:101A0000820240000100F76A160FF66E1A0EF722E6
:101A10000900F55012000200F76A280FF66E1A0E40
:101A2000F7220900F550120012171B20FFFFFFFFDD
:101A3000F76A400FF66E1A0EF7220900F5501200F1
:101A40001201100102000040610433000001010294
:101A50000001F76A620FF66E1A0EF7220900F550C0
:101A60001200040309040803430043005300180351
:101A7000530045005200490041004C002000440042
:101A800045004D004F006D92699468A402D068949F
:101A9000FCD7D6EF14F0400E0401016F040E036F63
:101AA000180E026F880E006F046B040E076F580E3D
:101AB000066F0001000C70A002D0EDDF7090689AF4
:101AC000DFEF14F06A6A6892E5EF14F00101E29129
:101AD000E1BFE281E19FE151100803E2000E016ED7
:101AE0001BD0E2A10DD0036AE151000112DFFF0813
:101AF00002E1000E01D0010E016E01010DD00CD0EB
:101B0000036AE151000115DFFF0802E1000E01D078
:101B1000010E016E010100D00001000C0101E6512F
:101B2000E803F3CF01F0F4CF00F0E903F35000260F
:101B3000E751E803F3500020026E0001000C036A35
:101B40000101E051700FE96E0F0E0320EA6EEF6A9B
:101B5000E0C1E1F10001BADF015227E00101E76BCA
:101B6000E0C1E6F1E96B080EE86F0001D7DF010183
:101B700001C0E9FF040E0224EA6EEF6AE76BE0C1E0
:101B8000E6F1E96B080EE86F0001C8DF02C0E2F180
:101B900001C0E1F1040E0101E127000EE223E1C1E1
:101BA000E9FF040EE225EA6EEF6A0001000C010E67
:101BB0000101DF6FDF510F0807E3DFC1E0F1000132
:101BC000BEDF0101DF2BF6D70001000C2D6A2C6A65
:101BD000250E2B6E800E2A6E2E6A2F6A080E306E2E
:101BE0007F6B7E91326A316A7A6B7B91000C0101C6
:101BF000D56BD55101080AE3036AD551280FE96E68
:101C0000000E0320EA6EEF6AD52BF3D70001DEDF6A
:101C10001B6A010E1C6E1A6A000C6896000C6A6A38
:101C2000686A9F0E6B6E3D0E696E6E6AC0DFDFDF05
:101C3000160E706E68A602D0F0DFFCD76D982BDF11
:101C4000030E226EEBEF14F0698468986D82F1EF59
:101C500014F0689CF7EF14F0DAC123F0000CFF0ECB
:101C6000236E000C0101D86B27522CE0D8513F089D
:101C700029E31D50000A000105E0020A09E0010AFB
:101C80000DE012D0036A265094DEE8CFD9F10CD0D3
:101C9000036A2650DEDEE8CFD9F106D0036A26506B
:101CA000C7DEE8CFD9F100D0262A27060101D85196
:101CB000D82B580FE96E040EEA6ED8B0EA2AD9C1C3
:101CC000EFFFD2D7275204E1D851400801E01A6A49
:101CD000D8C1DAF10001C0DF000C266A1D6A0401D8
:101CE0001B51010A000107E0030A0AE0010A0BE0A8
:101CF000220A1BE02BD0120E276E030E1D6E28D079
:101D0000430E276E25D0020E1D6E036A04011A5180
:101D10001E0FE96E000E0320EA6EEFCF26F0036A75
:101D20002650000196DE276E13D0036A04011A5173
:101D3000000172DE266E263C01D006D0036A2650D2
:101D400038DE276E05D002D08ADF0ED088DF0CD0B7
:101D500004011F5305E127501E5D02E21EC427F057
:101D6000010E1A6E00017EDF02EF10F00101D75361
:101D700006E1040E226E00011ADFE7D00101050E14
:101D8000226E040EDA6F980ED96F010ED86FD851FB
:101D90000F08D8A0DAD0D8C1E0F10001D0DE0101EF
:101DA000DB6B036AD8510001C4DDFF0865E0040E57
:101DB0000101DB6FD890D835036A0001E2DD09002C
:101DC000F5CF03F00101DC6F03C0DDF1E76BD8C193
:101DD000E6F1E96B080EE86F0001A0DE01C0DFF15B
:101DE000010E01010124016E000E0220036E01C0EC
:101DF000E9FF040E0324EA6EDCC1EFFFE76BD8C1F4
:101E0000E6F1E96B080EE86F000188DE01C0DFF142
:101E1000020E01010124016E000E0220036E01C0BA
:101E2000E9FF040E0324EA6EDAC1ECFFED52D9C1DA
:101E3000EFFFD890D835036A0001A3DD0900F5CF84
:101E400003F00101D9270350DA23880EDE6FDDB1DC
:101E5000DE81DDB3DE83E76BD8C1E6F1E96B080E06
:101E6000E86F00015BDE010101C0E9FF040E0224FE
:101E7000EA6EDEC1EFFF0001036A0101D8510001E3
:101E800048DDFF0847E00101DB83E76BD8C1E6F1DD
:101E9000E96B080EE86F000141DE02C0E0F101C00D
:101EA000DFF1040E0101DF27000EE023020EDF2523
:101EB000016E000EE021036E01C0E9FF040E032451
:101EC000EA6EDAC1ECFFED52D9C1EFFFD890D835F8
:101ED000036A00013EDD0900F5CF03F00101D927B7
:101EE0000350DA23E76BD8C1E6F1E96B080EE86F1F
:101EF000000114DE02C0E0F101C0DFF1040E0101B7
:101F0000DF27000EE023DFC1E9FF040EE025EA6EC3
:101F1000400EEF6E0101DB51060802E10E0EDB6F91
:101F2000036AD8510001F5DC010803E00101DB89F7
:101F30000001036A0101D851700FE96E0F0E0320F2
:101F4000EA6EDBC1EFFFD82B22D70001FAEF0FF0CA
:101F500004011951000A00010DE0010A15E0020A0E
:101F600020E0060A2AE0030A31E00E0A31E0010A05
:101F700037E046D01CC058F40401596B020E010131
:101F8000DA6F000169DE3ED004011A2D07D0010E80
:101F90001C160101DA6B00015FDE02D000015FDE7A
:101FA00031D004011A2D06D01C820101DA6B000128
:101FB00053DE02D0000153DE25D0020E1A6E1AC481
:101FC00024F00101DA6B000147DE1CD086D61AD05E
:101FD0001BC058F4010E0101DA6F00013DDE12D082
:101FE00004011A5101080AE31AC41BF01AC4D7F1FC
:101FF0000001BCD60101DA6B00012EDE000102D027
:102000002EDE00D09BEF11F01BC0D7F10401195157
:10201000000A000105E00A0A0CE0010A2BE03FD0AB
:102020000401586B596B020E0101DA6F000114DED6
:1020300038D00101D7531BE0010ED75D036A0001C0
:10204000E2DC016E04011C5DD8A002D001010FD0BA
:10205000036A1C51280FE96E000E0320EA6EEFCFD1
:1020600058F4010E0101DA6F0001F6DD02D0000123
:10207000F6DD17D00101D7530FE0036A04011C51AC
:10208000280FE96E000E0320EA6E1AC4EFFF01016B
:10209000DA6B0001E1DD02D00001E1DD02D0DFDD1D
:1020A00000D09BEF11F00101D891D7BFD881D79F05
:1020B000D8A119D0E76BD7C1E6F1E96B080EE86F3C
:1020C00000012CDD02C0DAF101C0D9F1040E0101DA
:1020D000D927000EDA23D9C1E9FF040EDA25EA6E0A
:1020E000880EEF6E0FD0E76BD7C1E6F1E96B080EF3
:1020F000E86F000113DD010101C0E9FF040E0224B5
:10210000EA6EEF6A000105EF11F00101D891D7BF27
:10211000D881D79FD8A119D0E76BD7C1E6F1E96B79
:10212000080EE86F0001FADC02C0DAF101C0D9F153
:10213000040E0101D927000EDA23D9C1E9FF040EEC
:10214000DA25EA6E840EEF6E10D0E76BD7C1E6F1A8
:10215000E96B080EE86F0001E1DC010101C0E9FF55
:10216000040E0224EA6E840EEF6E00010DEF11F0F2
:102170000101D891D7BFD881D79FD8A119D0E76BDB
:10218000D7C1E6F1E96B080EE86F0001C7DC02C0B9
:10219000DBF101C0DAF1040E0101DA27000EDB23C6
:1021A000DAC1E9FF040EDB25EA6EEFCFD9F110D0DA
:1021B000E76BD7C1E6F1E96B080EE86F0001AEDC12
:1021C000010101C0E9FF040E0224EA6EEFCFD9F14C
:1021D000D9AF02D0D9B502D0000E01D0010E016EE8
:1021E000000119EF11F01CC4E1F170DC01522EE086
:1021F00004011951010A000105E0020A0BE0030A7B
:1022000011E022D01CC4D7F14ED70101DA6B0001D6
:1022100023DD1CD01CC4D7F178D70101DA6B000193
:102220001BDD14D00401586B596B1CC4D7F100019D
:102230009FD7015203E0010E0401586F020E010105
:10224000DA6F000109DD02D00ADD00D09BEF11F04A
:10225000FE0E236E000C04011C2D01D002D01C5375
:102260004FE11951000A00010BE0010A0DE0210ABB
:102270001CE0010A1FE0030A30E0010A35E03DD00E
:10228000010E816FE5DF3BD0040EEA6E580EE96E59
:10229000E26A330EE16E080E016EE6CFEEFF012E0C
:1022A000FCD71EC4DAF1D8DC2AD0020E816F7E8101
:1022B000CFDF25D0040EEA6E580EE96EE26A2A0ED0
:1022C000E16E070E016EE6CFEEFF012EFCD7070E82
:1022D0000101DA6F0001C0DC12D01AC47FF00101E5
:1022E000DA6B0001B9DC0BD01AC432F01BC431F038
:1022F0000101DA6B0001B0DC02D0B1DC00D00401D6
:1023000000019BEF11F01A6A040118517F0B000ABB
:10231000000107E0010A07E0030A07E0230A07E0DB
:1023200008D016D608D070D606D05DD704D093D783
:1023300002D095DC00D001EF14F00101E76BD8C1A9
:10234000E6F1E96B080EE86F00018EEC0DF001017B
:1023500001C0E9FF040E0224EA6EEFCFDAF1D95191
:10236000020806E1DAAD02D0D96B02D0010ED96FB6
:10237000D95103081CE1840EDA6FE76BD8C1E6F18E
:10238000E96B080EE86F00018EEC0DF002C0DEF183
:1023900001C0DDF1040E0101DD27000EDE23DDC1E9
:1023A000E9FF040EDE25EA6E840EEF6E07D0D92D0C
:1023B00003D0C80EDA6F02D0880EDA6FD890D83505
:1023C000036A0001C1EC0CF00900F5CF03F0010134
:1023D000DB6F03C0DCF1E76BD8C1E6F1E96B080EF7
:1023E000E86F00018EEC0DF001C0DDF1010E01017E
:1023F0000124016E000E0220036E01C0E9FF040EED
:102400000324EA6EDBC1EFFFDCB1DA81DCB3DA83EF
:10241000E76BD8C1E6F1E96B080EE86F00018EECBE
:102420000DF0010101C0E9FF040E0224EA6EDAC1D9
:10243000EFFF0001000C036A0101E551700FE96E26
:102440000F0E0320EA6EEF521BE0E76BE5C1E6F1E9
:10245000E96B080EE86F00018EEC0DF002C0E7F1A9
:1024600001C0E6F1040E0101E627000EE723E6C1F4
:10247000E9FF040EE725EA6EEFCFE6F1E6AF02D002
:10248000000E01D0010E016E0001000CE0C1E5F16B
:10249000D2DF0152D8B486D00101E76BE0C1E6F18A
:1024A000E96B080EE86F00018EEC0DF002C0E6F15A
:1024B00001C0E5F1040E0101E527000EE623010E3F
:1024C000E525016E000EE621036E01C0E9FF040E52
:1024D0000324EA6EE1C1EFFFE351020820E1E76B5C
:1024E000E0C1E6F1E96B080EE86F00018EEC0DF03B
:1024F00002C0E6F101C0E5F1040E0101E527000E7E
:10250000E623E5C1E9FF040EE625EA6EEFCFE4F12C
:10251000E4AD02D0E36B02D0010EE36F1AD0E351B9
:10252000040817E1E76BE0C1E6F1E96B080EE86F1C
:1025300000018EEC0DF0010101C0E9FF040E022440
:10254000EA6EEFCFE4F1E4AD03D0010EE36F01D00A
:10255000E36BE32D03D0C80EE46F02D0880EE46F66
:10256000E2B1E481E2B3E483E76BE0C1E6F1E96B59
:10257000080EE86F00018EEC0DF002C0E6F101C01C
:10258000E5F1040E0101E527000EE623E5C1E9FFB0
:10259000040EE625EA6EE4C1EFFF010E016E05D0E0
:1025A00000D00001000E016E01010001000C8151FC
:1025B000010A03E0030A15E028D0EA6A330EE96E47
:1025C000040EE26E180EE16E080E016EE6CFEEFF0D
:1025D000012EFCD70101DA6B00012CEC0EF0816BAF
:1025E00016D0EA6A2A0EE96E040EE26E180EE16E4B
:1025F000070E016EE6CFEEFF012EFCD7816B0101C5
:10260000DA6B00012CEC0EF002D0816B00D046EFAB
:1026100013F00101E76BD8C1E6F1E96B080EE86F32
:1026200000018EEC0DF002C0DAF101C0D9F1010E0B
:1026300001010124016E000E0220036E01C0E9FFBA
:10264000040E0324EA6E036AEFCF01F003C002F028
:1026500000013AEF13F07B91020E0101D86FD96FA0
:1026600000016BDE000C7B817D6B020E0101D86FD7
:102670000001CFD701C07CF07C5301E1ECDF4DEFCE
:1026800013F00101D75304E1000191D706D00101F5
:10269000D751020803E10001E6D701010001000C57
:1026A000D8C16EFF0101D85303E0040E226E02D0A0
:1026B000020E226E000162EF13F01B6A1A6A24C038
:1026C000D8F1EED7DBEF13F0D8C1E5F1B4DE01525B
:1026D0004AE00101E76BD8C1E6F1E96B080EE86F4B
:1026E00000018EEC0DF002C0E1F101C0E0F1040E3A
:1026F0000101E027000EE123020EE025016E000E2D
:10270000E121036E01C0E9FF040E0324EA6EECCF61
:1027100003F0ED52EFCFDEF103C0DFF1DFC1EAFFDE
:10272000DEC1E9FFDAC1E2FFD9C1E1FFDCC102F09D
:10273000DBC101F0015202E0022A02D0025206E09F
:10274000E6CFEEFF012EFCD7022EFAD7D8C1E0F17A
:10275000DCC1E2F1DBC1E1F1DDC1E3F1000196DEB4
:10276000015003D000D0000E016E000C020E0101DA
:10277000D86FDA6B3B0ED96FDC6B7AC0DBF1020EDF
:10278000DD6F0001A1DF7AC080F07A6B000C7A5314
:1027900001E0ECDFE2EF13F00101D7530EE11A2C58
:1027A00005D0000132EC0EF006D001011A500208EB
:1027B00003E1000182D7010106D0D751020803E1ED
:1027C0000001E5D701010001000C21300101D56FA6
:1027D000D533D5331F0ED51721524FE104010051D7
:1027E0003C0B0101D66F430E040100170101D651C5
:1027F000340825E104010451800B01E0046B000161
:1028000082D56D98233C07D00101D86B030ED96F98
:10281000000193DD12D00101D86B020ED96F0001C7
:102820008CDD2350FE0809E00101E06BE26B23C060
:10283000E1F1040EE36F000129DE1DD00101D65144
:1028400004081AE1D76B00011CDF0101D86B020EEE
:10285000D96F000172DD2350FE080CE0233C01D04B
:1028600009D00101E06BE26B23C0E1F1010EE36FDF
:1028700000010CDE00D001018AD02150040818E1CB
:10288000430E04010417FF0E236E0101D76B0001F4
:1028900083DF233C01D00AD00101E06BE26B23C04F
:1028A000E1F1020EE36F0001F1DD00D06FD0010114
:1028B00021B430D0E76BD5C1E6F1E96B080EE86FC3
:1028C00000018EEC0DF001C0D7F1010101C001F053
:1028D000040E0224036E01C0D7F1D86FE76BD5C197
:1028E000E6F1E96B080EE86F00018EEC0DF00101D6
:1028F00001C0E9FF040E0224EA6EEF50430BD8C179
:10290000EAFFD7C1E9FFEF6ED5C1D7F10001B9DE0B
:102910003DD00101E76BD5C1E6F1E96B080EE86F28
:1029200000018EEC0DF002C0D8F101C0D7F1040E09
:102930000101D727000ED823D7C101F0040ED825F6
:10294000036ED7C1D7F1D86FE76BD5C1E6F1E96B5C
:10295000080EE86F00018EEC0DF002C0DAF101C044
:10296000D9F1040E0101D927000EDA23D9C1E9FFFC
:10297000040EDA25EA6EEF50430BD8C1EAFFD7C147
:10298000E9FFEF6ED5C1D7F1000106DF01010001BB
:1029900003EF15F0A19A225201E13ED068523CE0CB
:1029A00068A404D069A402D043EF0DF06DA201D059
:1029B00033D068AA04D069AA02D05BEF0DF068A2F8
:1029C00004D069A202D062EF0DF068A004D069A023
:1029D00002D00FEF0EF068A804D069A802D024EF4F
:1029E0000EF068AC04D069AC02D029EF0EF0010102
:1029F000D46B68A60AD069A608D06CCF21F000017C
:102A00000DEC0EF0E2D602D0010105D00101D45147
:102A1000D42B0308EEE2000162EF0CF05245434F65
:102A200052440A00524553455444500A000052652E
:102A300063616C6C0A000A0D466C6266000001015D
:102A4000D8C100F0D951016E04E0D8900032012EB7
:102A5000FCD70050010B016E0001000C0101DA519E
:102A6000070B006EDA31016E013201321F0E0116C2
:102A70000150DC25E96E000EDD21EA6E016A012AB3
:102A8000002A01D00136002EFDD7DB5303E00150B0
:102A9000EF1203D0011E0150EF160001000CD9C146
:102AA00003F00101D8C1E9FFD9C1EAFF010E006EB0
:102AB000DA51016E04E0D8900036012EFCD70050A8
:102AC000EF10EF6E0001000C8E0E006ED9C101F008
:102AD000D8C102F0036A015209E102C001F0026AA2
:102AE000080E005E015202E1006A08D0D89001BED3
:102AF00004D0023601360006F9D7019E000C010110
:102B0000D851D8B471D0006EDC51D8B46DD0002645
:102B100004E3810E002668E204D07F0E005E64E3C9
:102B200063E0D9C1E0F1DD51E01BD98FDD8FDB51CE
:102B3000DF03F4CFE2F1DA51DE03F4CF03F0F3CF99
:102B4000E1F1DF03F350E227F450E123000E03220A
:102B5000DB51DE03F350E227F450E123000E026A5A
:102B600003220222D951DF03F350E127F45003225C
:102B7000000E0222D951DE03F3500326F450022244
:102B8000000E016A0122DB51DD03F350E127F4500E
:102B90000322000E02220122DA51DD03F350032644
:102BA000F4500222000E0122D951DD03F350022617
:102BB000F4500122002A01BE05D0E1370336023667
:102BC00001360006000EE1AF0AD0032A02220122DC
:102BD000015005E1025003E1035001E1002AE0BF8A
:102BE000018EE0AF019E04D0006A016A026A036AA6
:102BF0000001000C8E0E006E0101D851005ED9C19B
:102C000002F0DAC101F0028E005209E0D8900252BF
:102C100002E1015204E002320132002EF7D7D9AFAF
:102C200005D0011E021E012AD8B4022A0001000CA0
:102C300001013E2B3E510408D8A482D13E6B2E5197
:102C400003086BE328C1D8F130C1D9F10001F7DEE8
:102C5000012C61D0036A01013051290FE96E010E88
:102C60000320EA6EEF3C01D057D025C1D8F130C126
:102C7000D9F10001E4DE015237E127C1D8F130C1BA
:102C8000D9F1DDDE015218E0D89001013035036A38
:102C90000D0FE96E010E0320EA6EECCFD9F1ED5273
:102CA000EFCFD8F1D8C1DAF1DB6B0F0EDD6F890EF3
:102CB000DC6F0001D3DE17D0D89001013035036AF4
:102CC000150FE96E010E0320EA6EECCFD9F1ED523B
:102CD000EFCFD8F1D8C1DAF1DB6B0F0EDD6F890EC3
:102CE000DC6F0001BBDE17D0D89001013035036ADC
:102CF000150FE96E010E0320EA6EECCFD9F1ED520B
:102D0000EFCFD8F1D8C1DAF1DB6B0F0EDD6F890E92
:102D1000DC6F0001A3DE010173D0D46BD451030832
:102D2000D8A06ED028C1D8F1D4C1D9F1000187DE76
:102D3000012C63D0036A0101D451290FE96E010E01
:102D40000320EA6EEF525AE025C1D8F1D4C1D9F17F
:102D5000000175DE015239E127C1D8F1D4C1D9F1A2
:102D60006EDE015219E0D8900101D435036A0D0FCF
:102D7000E96E010E0320EA6EECCFD9F1ED52EFCFF0
:102D8000D8F1D8C1DAF1010EDB6F0F0EDD6F890EBD
:102D9000DC6F000163DE18D0D8900101D435036ADE
:102DA000150FE96E010E0320EA6EECCFD9F1ED525A
:102DB000EFCFD8F1D8C1DAF1010EDB6F0F0EDD6F66
:102DC000890EDC6F00014ADE18D0D8900101D4359D
:102DD000036A150FE96E010E0320EA6EECCFD9F1FC
:102DE000ED52EFCFD8F1D8C1DAF1010EDB6F0F0E43
:102DF000DD6F890EDC6F000131DE0101D42B8ED72F
:102E0000FF0ED56FD46BD451040823E3036AD45169
:102E1000290FE96E010E0320EA6EEF50D55D17E32E
:102E20002FC1D8F1D4C1D9F1000109DE0152D8B4C3
:102E300002D001010CD0036A0101D451290FE96EBF
:102E4000010E0320EA6EEFCFD5F1D4C1D6F1D42B19
:102E5000DAD7010ED96F2F0ED86FD6C1DAF1000183
:102E60001EDE01012E5103082FE3036A3051290FA2
:102E7000E96E010E0320EA6EEF50D55DD76FD96B76
:102E8000D7C1D8F1000120DE03C0DBF102C0DAF1C6
:102E900001C0D9F100C0D8F1710E0101DF6F3D0E04
:102EA000DE6F6A0EDD6F7E0EDC6F000128DE03C070
:102EB000DBF102C0DAF101C0D9F100C0D8F19ADE2D
:102EC00001C0D7F126D00101D5C1D7F1D96BD7C147
:102ED000D8F10001F9DD03C0DBF102C0DAF101C075
:102EE000D9F100C0D8F1710E0101DF6F3D0EDE6F28
:102EF0006A0EDD6F7E0EDC6F000101DE03C0DBF1C8
:102F000002C0DAF101C0D9F100C0D8F173DE01C00E
:102F1000D7F1D6C130F101012E51030801E12F6B29
:102F20002E51030802E32E2B01D02E6BD75303E161
:102F30002E53D8A484D62E5303E100017E870101CD
:102F4000FF0ED880D755D76AD66EF294000162EF93
:102F50000CF0006A016A026A036A0101DC6BDD6B36
:102F6000DE6BDF6BDB51DA11D911D8112CE0200EAA
:102F7000E06FD890D437D537D637D737DC37DD3741
:102F8000DE37DF37DB51DF5D08E1DA51DE5D05E179
:102F9000D951DD5D02E1D851DC5D0FE3D851DC5F32
:102FA000D951D8A0D93DDD5FDA51D8A0DA3DDE5F36
:102FB000DB51D8A0DB3DDF5FD8800036013602361A
:102FC0000336E02FD6D7010EEA6EDC0EE96E000163
:102FD000000CD7C104F1D6C103F1D5C102F1D4C1AF
:102FE00001F14EEF18F0AC6BACC082F07EEF18F040
:102FF000190E01013A27000E3B233C233D231D2DD2
:1030000001D002D0190E3F27355302E1365324E098
:103010003DC1D7F13CC1D6F13BC1D5F13AC1D4F1A4
:10302000DB6BDA6BD96B640ED86F000192DFEFCFE8
:10303000D4F1ECCFD5F1ECCFD6F1ECCFD7F1010143
:10304000D4530AE1D55308E1D65306E1D75304E13E
:103050003551D8B43607350783B202D0395358E01A
:10306000345302E0395353E0396B335302E0000E1E
:1030700001D0010E336F010E346F366B356B0001DA
:103080007E93010138533FE13DC1D7F13CC1D6F1F8
:103090003BC1D5F13AC1D4F100019BD78988F2CF69
:1030A000D4F1F29EF86A760EF76EF66A0900F550D2
:1030B0000800F5CF03F0F86A0101D4BFF28ED46F97
:1030C000D56FD46BF2CFD6F1F29EF86A760EF76E1A
:1030D000020EF66E0900F5500800F5CF03F0F86A0D
:1030E000D6BFF28ED4250001FB6F03500101D5211C
:1030F0000001FC6FD890FB37FC3775D70101326BAC
:10310000010E386F04D0386B010E376F899803D0E9
:10311000345301E0346B6D0ECF6E840ECE6E9E90F4
:10312000000162EF0CF09E9262EF0CF00101226B45
:10313000010E1D6F386B0001826BAC6B836BF2CF9D
:10314000A6F1F29EF86A760EF76E080EF66E09008A
:10315000F5500800F5CF03F0F86A0101A6BFF28E22
:103160000001F96F03C0FAF0000C8B9014EF19F016
:103170008B9215EF19F0010EEA6EBE0EE96EEF505C
:103180000EE00F0E016E006A002EFED7012EFBD757
:103190008F0E006E002EFED70000EF2EF2D7000C2F
:1031A000320EBE6E8C8089880101BE6F0001E3DFA4
:1031B000BE6A320E0101BE6F0001DDDF8C9089987E
:1031C000320EBE6E0101BE6F0001D5DFBE6A8C807B
:1031D0008988640E0101BE6F0001CDDF8C90899853
:1031E00095EF19F00101266B2F0E926E030E936E70
:1031F000000E946E020E956E070E966EC080C08211
:10320000C084C08EC280246B000E016EC250C30BFE
:103210000110C26EC150C00B0709C16E8A9E8C9C02
:1032200089988C900001A1D7A3D70101A76BA86B47
:10323000A75103085CE3D890A735036A050FE96E30
:10324000010E0320EA6EECCFAAF1ED52EFCFA9F107
:10325000196AF2BE198EF29EA9C1DAF1DB6B0F0E6C
:10326000DD6F890EDC6F00012EEC15F019BEF28EB9
:10327000D8900101A735036A0D0FE96E010E0320F6
:10328000EA6EECCFAAF1ED52EFCFA9F1196AF2BEC6
:10329000198EF29EA9C1DAF1DB6B0F0EDD6F890E7C
:1032A000DC6F00012EEC15F019BEF28ED8900101F2
:1032B000A735036A150FE96E010E0320EA6EECCF05
:1032C000AAF1ED52EFCFA9F1196AF2BE198EF29E62
:1032D000A9C1DAF1DB6B0F0EDD6F890EDC6F000127
:1032E0002EEC15F019BEF28E0101A72BA1D78B94FD
:1032F0000C0EBD6EB76AB66AB50ECD6E780E0609B5
:10330000CA6EFA0ECB6EC00EF212C70ED56ED76A19
:10331000D66AF28A9D809D829D8A6D0ECF6E840E44
:10332000CE6EA65303E000013BD701010001000C63
:103330006D6A696A080E6F6E945030090101946ECF
:10334000226A196AF2BE198EF29E0001F7EC0DF0A6
:1033500019BEF28EADEF19F0EBD7AAEF2DF0196A76
:10336000F2BE198EF29EF7EC0DF019BEF28E6D6A68
:10337000140E6F6E696A6D86010E226EC3EF19F02E
:103380006DB601D0ECD7222C0BD06DBA09D0686A8B
:10339000696AA08AC00EF212110E696E020E226EC8
:1033A000ACEF2DF01B50016EF7EF19F07BB101D09F
:1033B000FDD77D517D2BA00FE96E040EEA6ED8B0CB
:1033C000EA2AEFCFA6F1010100017C517D5D08E3FF
:1033D000196AF2BE198EF29E2BEC13F019BEF28E12
:1033E0000101A6C101F000010EEF1AF0DBD7015276
:1033F0002AE07BA128D001015653D8B402D00001A5
:1034000022D05451542B036A400F016E010E032247
:1034100001C0A4F103C0A5F10001C8D7A5C1EAFF0E
:10342000A4C1E9FF01C0EFFF01015451130801E2FB
:10343000546B5451140802E1010E566F050EBE6F15
:10344000000199DED6D7AEEF2DF00101562D0BD03D
:10345000566B020EA86F546B556BA6C1E9FFA7C14E
:10346000EAFFEF6A22D05451555D07E1A86BA6C16F
:10347000E9FFA7C1EAFFEF6A18D0A7C103F0036A0A
:103480005551400FE96E010E0320EA6EEFCFABF10C
:10349000A7C1EAFFA6C1E9FFABC1EFFF552B55510C
:1034A000130801E2556B010EA86FA8C101F00001DD
:1034B000AEEF1BF00101C291F2BEC281F29E00018B
:1034C0007A513E0802E23E0E7A6F7A517A2B036AF5
:1034D0003B0FE96E000E0320EA6EC1C1EFFFF29EC2
:1034E0000101C2B1F28E000179EF1AF0C0C1C1F141
:1034F000E1D7196AF2BE198EF29E020E0101E56F44
:1035000000011BEC12F019BEF28E015208E0196A9C
:10351000F2BE198EF29EB6EC13F019BEF28E000CBC
:10352000BDC101F0BCC100F00066012A0900F5CF61
:10353000EEFF002EFBD7012EF9D7F86A000CBBC1B5
:1035400099F1BAC198F1C00E010198179851BA5D6E
:10355000976FF86A99C1F7FF98C1F6FF010EEA6EFE
:10356000570EE96EBD6B400EBC6F0001D9DF000C39
:103570007A513E0817E2196AF2BE198EF29E020EC7
:103580000101E56F00011BEC12F019BEF28E015231
:1035900008E0196AF2BE198EF29EB6EC13F019BE5D
:1035A000F28EE6D7ACC1C0F1A1DF000C0101A9C1C8
:1035B00003F0A851D8B4A907A807AA6F03C0ABF1BC
:1035C000AA5302E1AB5321E0A7C103F0A651A62BF9
:1035D000D8B4A72BAA6F690E0324AB6FF2CFACF15E
:1035E000F29EF86AF76EAAC1F6FF0900F5500800CE
:1035F000F5CF03F0F86AACBFF28EAA6F03C0ABF14F
:10360000AC6F0001B5DFD2D701010001AAEF1CF0B9
:10361000F250036EF29EA68EA6840F01550EA76E81
:10362000AA0EA76EA68200000350F2120001000C41
:10363000D08CA69CF6501F0B006EE00EF6160A000A
:10364000BCC101F0006608D0F650010F3F0B04E149
:10365000A6880900DDDF0A00006607D0EECFF5FF7F
:10366000015204E00F00010603D000060B000C001D
:103670001F0EF6141F0AE6E1CBDF0166E3D7F86AF6
:10368000000C01019751972B036A570FE96E010E49
:103690000320EA6EA6C1EFFF9751972B036A570FDD
:1036A000E96E010E0320EA6EA751EF6E97513F08B5
:1036B00030E29D90D08CF86A99C1F7FF98C1F6FF6F
:1036C000A688A69C0001A4DFF86AF86A99C1F7FFF2
:1036D00098C1F6FF010EEA6E570EE96E400E010129
:1036E000BC6F0001A5DF0101976B400E9827000E0B
:1036F0009923F86A99C1F7FF98C1F6FF010EEA6EA7
:10370000570EE96EBD6B400EBC6F000109DF9D8056
:1037100001010001CCEF1CF09D90D08CF86A99C19A
:10372000F7FF98C1F6FFA688A69C72DFF86AF86AD0
:1037300099C1F7FF98C1F6FF010EEA6E570EE96EC8
:10374000400E0101BC6F000173DF9D80000C010E73
:103750000101A76FA40EA66F000177D601C0A5F1E5
:103760000101A52D45D13F6BA4C131F1010E326F8E
:10377000A4C1C0F10001BADE01011D51010A00011E
:1037800024E0030A57E0010AD8B45CD0070AD8B491
:1037900077D0010AD8B47BD0850AD8B479D0010A91
:1037A000D8B47FD0030AD8B4BFD0010AD8B4C5D0EA
:1037B000070AD8B4D8D0010AD8B4DED0030AD8B4E6
:1037C000E4D0010AD8B4FDD006D10101A451540AB5
:1037D00000010BE0D70A0EE0070A16E0010A19E023
:1037E000030A1CE0010A20E024D0020E01011D6F33
:1037F00000011FD09BDC0101A66B0001F3DC800EF1
:1038000001011D6F000115D0820E01011D6F000125
:1038100010D0840E01011D6F00010BD0010E0101BB
:10382000396F1D6F000105D0870E01011D6F00016A
:1038300000D0D6D00101A451FE0802E1030E1D6F95
:103840000001CED00101A451E00B006E00381E6FC4
:103850001E33070E1E17A4511C0B006E00301F6F85
:103860001F333F0E1F17A451030B206F1E51030877
:1038700003E2040E1D6F02D0050E1D6F0001B0D0D3
:10388000A4C121F1050E01011D6F0001A9D0A8D02E
:10389000A4C1FCF00001FB6B810E01011D6F000152
:1038A0009FD00101A4510001FB13010E01011D6F06
:1038B0000001FB51F00B0101A66F0001FC510F0B41
:1038C0000101A76FA651F0081EE1A7510F081BE1E7
:1038D0000001FB510F0B0101A66FA76BD890A63515
:1038E000026EA735036E760E0324A76F000E025CEE
:1038F0000001FB6F690E0101A7590001FC6F320E38
:10390000BE6E05D00101D8900001FB37FC37FBC02B
:10391000A6F1690E0001FC250101A76FBB6FFBC07A
:10392000BAF100010CDE5CD0A4C1FEF00001FD6B19
:10393000830E01011D6F000153D00101A45100014C
:10394000FD13FCC0A7F1FBC0A6F1FEC0A9F1FDC0AC
:10395000A8F12CD6FD51FB27FE51FC23010E0101DD
:103960001D6F00013DD0A4C1FEF00001FD6B850E6E
:1039700001011D6F000134D00101A4510001FD13AC
:10398000860E01011D6F00012BD0BE6A0101A76BDD
:10399000A4C1A6F1000175D6FD51D8B4FE07FD2FD4
:1039A00007D0FE5305E1B8DE010E01011D6F0001D5
:1039B000FF0ED8800101A455A66FAC6F0001D8DDC1
:1039C0000FD0370E0101AC6F0001D2DD010E0101F5
:1039D0001D6F000105D0010E01011D6F000100D017
:1039E00001011D51050801E103D00001B0D601011C
:1039F000A551020802E1010E1D6F0001B0EF2DF08C
:103A0000340E0101AC6F0001B3DDC3EF2DF00101F5
:103A1000BB35006E0036FC0E0016C250C30B001002
:103A2000C26EC70E006E002EFED700D0000130EF30
:103A30001DF0C282C2B2FED7C4CFBCF10101C3CF18
:103A4000BBF1BBC101F0BCC102F0000134EF1DF0BD
:103A50000101BA51245D06E0BAC1BBF10001D7D71C
:103A6000BAC124F10001E5D70250000CC2C103F035
:103A70000101C1C1E9FFC2C1EAFF010E006EC351DD
:103A8000016E04E0D8900036012EFCD70050FF0AEA
:103A9000EF14EF6E0001000C0101BD6BBD51030876
:103AA0002AE326C100F0BD51016E04E0D890003237
:103AB000012EFCD70050010B1CE0BC530AE1010EA3
:103AC000C26F250EC16FBDC1C3F10001CFDF10D0A1
:103AD0000101196AF2BE198EF29E010ED96F250EF0
:103AE000D86FBDC1DAF100014FEC15F019BEF28EAE
:103AF0000101BD2BD3D70001000CD8900101C135C5
:103B0000036A050FE96E010E0320EA6EECCFC3F1E4
:103B1000ED52EFCFC2F1196AF2BE198EF29EC2C108
:103B2000DAF1010EDB6F0F0EDD6F890EDC6F000125
:103B30002EEC15F019BEF28E8A8E8C8C18EF1EF0CA
:103B4000D8900101BC35036A0D0FE96E010E032008
:103B5000EA6EECCF03F0ED52EFCFBFF103C0C0F13E
:103B6000D890BC35036A150FE96E010E0320EA6E8A
:103B7000ECCF03F0ED52EFCFBDF103C0BEF1196AF7
:103B8000F2BE198EF29E27C1D8F1BCC1D9F1000155
:103B90001FEC15F019BEF28E015224E0196AF2BE34
:103BA000198EF29EBDC1DAF10101DB6B0F0EDD6FE4
:103BB000890EDC6F00012EEC15F019BEF28E196A29
:103BC000F2BE198EF29EBFC1DAF1010E0101DB6F68
:103BD0000F0EDD6F890EDC6F00012EEC15F019BEA3
:103BE000F28E23D0196AF2BE198EF29EBDC1DAF1AF
:103BF000010E0101DB6F0F0EDD6F890EDC6F00011E
:103C00002EEC15F019BEF28E196AF2BE198EF29ED4
:103C1000BFC1DAF10101DB6B0F0EDD6F890EDC6FC6
:103C200000012EEC15F019BEF28EBCC1C1F165D7B2
:103C3000196AF2BE198EF29E010E0101D96F280E8B
:103C4000D86FBCC1DAF100014FEC15F019BEF28E4D
:103C500077EF20F0D8900101C135036A050FE96EB6
:103C6000010E0320EA6EECCFC4F1ED52EFCFC3F1A9
:103C7000196AF2BE198EF29EC3C1DAF1DB6B0F0E28
:103C8000DD6F890EDC6F00012EEC15F019BEF28E8F
:103C90000101C1A104D0010EC15DC26F03D0010EAC
:103CA000C125C26F196AF2BE198EF29E28C1D8F1E1
:103CB000C2C1D9F100011FEC15F019BEF28E0152FC
:103CC00001E10CD00101C151010805E38A9E000108
:103CD00005D004D001018C9C000100D0D3EF1EF070
:103CE000D8900101BC35036A0D0FE96E010E032067
:103CF000EA6EECCF03F0ED52EFCFBFF103C0C0F19D
:103D0000D890BC35036A150FE96E010E0320EA6EE8
:103D1000ECCF03F0ED52EFCFBDF103C0BEF1196A55
:103D2000F2BE198EF29EBDC1DAF1010EDB6F0F0EED
:103D3000DD6F890EDC6F00012EEC15F019BEF28EDE
:103D4000196AF2BE198EF29EBFC1DAF1010E0101AD
:103D5000DB6F0F0EDD6F890EDC6F00012EEC15F0AE
:103D600019BEF28ED8900101BC35036A050FE96EC9
:103D7000010E0320EA6EECCFC2F1ED52EFCFC1F19C
:103D8000196AF2BE198EF29EC1C1DAF1DB6B0F0E19
:103D9000DD6F890EDC6F00012EEC15F019BEF28E7E
:103DA000BCC1C1F157D7010E0101C26F280EC16F0E
:103DB000BCC1C3F100015ADE7CEF20F0D8900101B4
:103DC000BC35036A0D0FE96E010E0320EA6EECCFDD
:103DD00003F0ED52EFCFBFF103C0C0F1D890BC3576
:103DE000036A150FE96E010E0320EA6EECCF03F0B3
:103DF000ED52EFCFBDF103C0BEF1196AF2BE198ECC
:103E0000F29E27C1D8F1BCC1D9F100011FEC15F019
:103E100019BEF28E01522DE0196AF2BE198EF29E81
:103E2000BFC1DAF10101DB6B0F0EDD6F890EDC6FB4
:103E300000012EEC15F019BEF28E196AF2BE198E31
:103E4000F29EBDC1DAF1010E0101DB6F0F0EDD6FD5
:103E5000890EDC6F00012EEC15F019BEF28E010EFA
:103E60000101C26F270EC16FBCC1C3F10001FEDDAD
:103E700033D0196AF2BE198EF29EBFC1DAF1010E7B
:103E80000101DB6F0F0EDD6F890EDC6F00012EEC80
:103E900015F019BEF28E196AF2BE198EF29EBDC1DE
:103EA000DAF10101DB6B0F0EDD6F890EDC6F0001B3
:103EB0002EEC15F019BEF28E196AF2BE198EF29E22
:103EC000010E0101D96F270ED86FBCC1DAF10001D4
:103ED0004FEC15F019BEF28E81EF20F0D890010161
:103EE000BC35036A0D0FE96E010E0320EA6EECCFBC
:103EF00003F0ED52EFCFBFF103C0C0F1D890BC3555
:103F0000036A150FE96E010E0320EA6EECCF03F091
:103F1000ED52EFCFBDF103C0BEF1196AF2BE198EAA
:103F2000F29E010ED96F270ED86FBCC1DAF10001E5
:103F30004FEC15F019BEF28E196AF2BE198EF29E80
:103F4000BDC1DAF10101DB6B0F0EDD6F890EDC6F95
:103F500000012EEC15F019BEF28E196AF2BE198E10
:103F6000F29EBFC1DAF1010E0101DB6F0F0EDD6FB2
:103F7000890EDC6F00012EEC15F019BEF28E86EF73
:103F800020F0D8900101BC35036A0D0FE96E010ED7
:103F90000320EA6EECCF03F0ED52EFCFBFF103C088
:103FA000C0F1D890BC35036A150FE96E010E0320ED
:103FB000EA6EECCF03F0ED52EFCFBDF103C0BEF1DE
:103FC000010EC26F270EC16FBCC1C3F100014EDDEF
:103FD000196AF2BE198EF29EBFC1DAF10101DB6BE4
:103FE0000F0EDD6F890EDC6F00012EEC15F019BE8F
:103FF000F28E196AF2BE198EF29EBDC1DAF1010E7F
:104000000101DB6F0F0EDD6F890EDC6F00012EECFE
:1040100015F019BEF28E8BEF20F0D8900101BC355F
:10402000036A0D0FE96E010E0320EA6EECCF03F078
:10403000ED52EFCFBFF103C0C0F1D890BC35036A99
:10404000150FE96E010E0320EA6EECCF03F0ED527E
:10405000EFCFBDF103C0BEF1010EC26F280EC16FDC
:10406000BCC1C3F1000102DD196AF2BE198EF29ED5
:10407000BFC1DAF10101DB6B0F0EDD6F890EDC6F62
:1040800000012EEC15F019BEF28E196AF2BE198EDF
:10409000F29EBDC1DAF10101DB6B0F0EDD6F890EFF
:1040A000DC6F00012EEC15F019BEF28E90EF20F0BF
:1040B0000101BB6BBB51030838E326C100F0BB51C3
:1040C000016E04E0D8900032012EFCD70050010BA5
:1040D0002AE0BC6B0001E0DC0101BA51FA0F23E2D7
:1040E000060F000197EF20F0BBC1BCF129D50101FB
:1040F0001AD0BBC1BCF1F4D5010115D0BBC1BCF1D4
:104100005DD6010110D0BBC1BCF1E8D601010BD0D6
:10411000BBC1BCF136D7010106D0BBC1BCF17DD714
:10412000010101D00101BB2BC5D70001000CE8241F
:10413000F76AF736490FF66E410EF7220A00F5507E
:10414000FA6E0800F550F96EE840F240FC40064176
:1041500010411A410101BD6BBD51030850E3196ABA
:10416000F2BE198EF29E26C1D8F1BDC1D9F100016F
:104170001FEC15F019BEF28E01523EE0196AF2BE34
:10418000198EF29E25C1D8F1BDC1D9F11FEC15F0F1
:1041900019BEF28E015225E1010E0101BC5DF90F3D
:1041A00021E2070F000101EF21F0240E0101BC6F95
:1041B00019D0490E0101BC6F15D06E0E0101BC6F04
:1041C00011D0920E0101BC6F0DD0B70E0101BC6F72
:1041D00009D0DB0E0101BC6F05D0FF0E0101BC6FE1
:1041E00001D00101036ABD51290FE96E010E0320C0
:1041F000EA6EBCC1EFFF00010101BD2BADD700018C
:10420000000CE824F76AF7361D0FF66E420EF7220F
:104210000A00F550FA6E0800F550F96EAA41B24155
:10422000BA41C241CA41D241DA410101BA39006EF4
:104230000F0E0016005002E1BAC126F10001000C79
:10424000A4C122F10101A55303E000017E8502D043
:1042500000017E95E7EF2DF0320EBE6E0101BE6FBC
:104260000001BBEC18F0BE6A000CC69E9E96BCC155
:10427000C9FF020EC6BE05D09EA6FED7000EC5BC65
:10428000010E016E000CC69CC586C5B6FED700B0F7
:10429000C59A00A0C58AC588C5B8FED7C9CF01F0A8
:1042A000000C0101A451FB0FD8B081D0050F000113
:1042B000EBEF21F00101A55302E18C8001D08C903D
:1042C00076D0CADF010173D00101BA6B0001F0DEC4
:1042D000030E0101BA6F0001EBDE010E0101BC6F9C
:1042E00000014CEC1DF0FF0ED8800101A655196AA3
:1042F000F2BE198EF29ED96BD86F000164EC15F0F6
:1043000019BEF28E196AF2BE198EF29E870E010155
:10431000DB6F160EDA6F590ED96F7A0ED86F03C0A5
:10432000DFF102C0DEF101C0DDF100C0DCF100010F
:104330007FEC15F019BEF28E196AF2BE198EF29E4C
:1043400003C0DBF102C0DAF101C0D9F100C0D8F13D
:10435000FAEC15F019BEF28E170ED8800154010147
:10436000A66FA6C1BCF10001F5DE010120D001015C
:104370001ED00101A551FC0F18E2040F0001DAEF75
:1043800021F0C580C5B0FED701010FD0C584C5B4EA
:10439000FED701010AD0A6C1BCF167DF010105D03B
:1043A000006A71DF010101D0010101D001010101A9
:1043B000F4EF2DF0E824F76AF736CF0FF66E430ED0
:1043C000F7220A00F550FA6E0800F550F96E8243A4
:1043D0008C439643A043E824F76AF736F10FF66E54
:1043E000430EF7220A00F550FA6E0800F550F96EF8
:1043F000B442C242C8426E4372437EA502D07EA739
:1044000038D0010122C100F02351016E04E0D890A0
:104410000032012EFCD70050010B25E023C1BAF178
:10442000000128EC1DF002C0A5F101C0A4F10101BA
:104430002339A66FA637E00EA617A551036AA61367
:1044400003C0A7F1A4C1A8F1A96B0C0EAC6F0001C9
:10445000B8EC1AF0A6C1ACF1B8EC1AF0A8C1ACF1F6
:10446000B8EC1AF00101010E2325070B236F0001A0
:104470007E97D7EF2EF07EA307D07E93330E016E8A
:10448000000E026E21D01BD0690E0001FC25010137
:10449000F2CFBAF1F29EF86AF76EFBC0F6FF0900A0
:1044A000F5500800F5CF03F0F86ABABFF28EB66F88
:1044B00003C0B7F1020E0001FB27000EFC2301012F
:1044C000B6C101F0B7C102F00001000C83B211D0F7
:1044D00089988C80640E0101BE6F0001BBEC18F05E
:1044E00089888C90640E0101BE6F0001BBEC18F04E
:1044F000EDD7000CAC5311E0AC07D890AC35036A93
:10450000AD0FE96E000E0320EA6EEFCF01F0E92A4D
:10451000EF50E906026E03D002D08387D7DF000C8C
:10452000825311E08207D8908235036A840FE96EC6
:10453000000E0320EA6EEFCF01F0E92AEF50E90602
:10454000026E03D002D08383C1DF000CAC5113088C
:1045500012E3AC51AC2B006ED89000360050036AC9
:10456000AD0FE96E000E0320EA6EB7C1ECFFED520D
:10457000B6C1EFFF02D08385A9DF000C825113087A
:1045800012E38251822B006ED89000360050036AED
:10459000840FE96E000E0320EA6EBDC1ECFFED5200
:1045A000BCC1EFFF02D0838191DF000C0101B75144
:1045B000B919800BBB6FB7AF05D0B61FB71FB62BAD
:1045C000D8B4B72BB9AF05D0B81FB91FB82BD8B422
:1045D000B92BB651B803F3CF01F0F4CF00F0B90313
:1045E000F3500026B751B803F3500020026EBBAF62
:1045F00005D0011E021E012AD8B4022A0001000CB7
:10460000016A026A006A036A0101BA5102E1B95102
:1046100018E0100EBB6FD890B737B83700360336A6
:10462000BA51035C02E1B951005C07E3B951005E85
:10463000D8A00306BA51035ED88001360236BB2FDC
:10464000EAD70001000CE9500101B86FB7AF0DD0F7
:10465000B807B88BB41FB51FB61FB71FB42BD8B49B
:10466000B52BD8B4B62BD8B4B72B3B0EBF6F9A0E70
:10467000BE6FCA0EBD6FBC6B0A0EBA6F196AF2BE6E
:10468000198EF29EB7C1D7F1B6C1D6F1B5C1D5F139
:10469000B4C1D4F1BFC1DBF1BEC1DAF1BDC1D9F102
:1046A000BCC1D8F10001A9EC17F019BEF28E01507F
:1046B000EFCFB4F1ECCFB5F1ECCFB6F1ECCFB7F171
:1046C000005213E10101BA51010AD8A402D000013D
:1046D0000CD0B8510DE00F0BBA5D01E02EE2B8BF6F
:1046E0002CD0B8BD05D0200E21D0200E0101B81766
:1046F000B8AB0CD0B89B00C0B8F12D0EC06F000154
:1047000076EC1AF00101B8C100F0B86B300EB8AB0E
:104710000DD0B89B00C0B8F12D0EC06F000176EC33
:104720001AF00101B8C100F0B86B300E002600C0CD
:10473000C0F1000176EC1AF00101196AF2BE198E7F
:10474000F29EBFC1D7F1BEC1D6F1BDC1D5F1BCC18A
:10475000D4F1DB6BDA6BD96B0A0ED86F0001A9ECD0
:1047600017F019BEF28E03C0BFF102C0BEF101C046
:10477000BDF100C0BCF10101BA2F80D70001C8EF24
:104780002AF00101BC6BBD6B010EBE6FDA6AD96AFB
:10479000C16FB40EC06F010EEA6EB80EE96EC1C1F2
:1047A000E2FFC0C1E1FFBEC1BFF1D890E550EE020B
:1047B000F350BC23F450BD23BF2FF7D7BCC1DEFF9D
:1047C000BDC1BCF1BD6BD8B0BD2BC02BD8B4C12BC3
:1047D000BE2BBE510508DFE1000102EF24F004C149
:1047E000B7F103C1B6F102C1B5F101C1B4F1410E97
:1047F0000101BB6FC60EBA6F4E0EB96F6D0EB86F6A
:104800000001BFD7390E01010024016F300E0120D5
:10481000026F000E0220036F000E0320046F03C11D
:1048200000F004C101F0026A036A04C1B6F103C1D9
:10483000B5F104C1B8F103C1B7F17F0EBA6FFF0E35
:10484000B96F0001DDDE00C001F003C002F0E4EF4B
:104850002AF00101B551B719800BB96FB5AF05D07A
:10486000B41FB51FB42BD8B4B52BB7AF05D0B61F46
:10487000B71FB62BD8B4B72B016A026A006A036A65
:10488000B75102E1B65118E0100EB86FD890B437A6
:10489000B53700360336B751035C02E1B651005C10
:1048A00007E3B651005ED8A00306B751035ED88077
:1048B00001360236B82FEAD7B9AF05D0011E021E65
:1048C000012AD8B4022A0001000C01019751972B4C
:1048D000036A570FE96E010E0320EA6EBAC1EFFFBB
:1048E0009751972B036A570FE96E010E0320EA6E6A
:1048F000BB51EF6E00018CEC1BF0000C8988320E6E
:104900000101BE6F0001BBEC18F08998020E010195
:10491000BA6FFA0EBE6F0001BBEC18F00101BA2F9E
:10492000F8D70001EBD7000C0101BC6BBC510308A8
:1049300024E326C100F0BC51016E04E0D89000329F
:10494000012EFCD70050010B16E0036ABC51290F61
:10495000016E010E032203C0BEF1036ABC51290F90
:10496000E96E010E0320EA6EBB51EF24BEC1EAFFDF
:1049700001C0E9FFEF6EBC2BD9D70001000C006A23
:10498000016A0101BA51D890BBB100260032013250
:10499000BBB3002600320132BBB500260032013223
:1049A000BBB7002600320132BBB90026003201320B
:1049B000BBBB002600320132BBBD002600320132F3
:1049C000BBBF0026003201320001D3EF26F0010107
:1049D000B56BB4512C0A0001D8B494D0010AD8B4F4
:1049E00092D0030AD8B490D0010AD8B492D01F0A4A
:1049F000D8B494D0030AD8B496D0060AD8B496D0C6
:104A0000010AD8B496D0020AD8B496D00A0AD8B40B
:104A100096D00D0AD8B496D0030AD8B493D0090A18
:104A2000D8B4A4D0060AD8B4ABD0030AD8B4A8D05E
:104A3000010AD8B4A7D07F0AD8B4A9D0010AD8B443
:104A4000ABD0030AD8B4ADD0060AD8B4AFD0010AAF
:104A5000D8B4B1D0030AD8B4C9D0010AD8B4DCD0D4
:104A60000F0AD8B4E7D07F0AD8B4F2D00F0AD8B46E
:104A7000EFD0710AD8B4ECD0030AD8B4E9D0010A57
:104A8000D8B4E6D0070AD8B4E3D0010AD8B4E0D04D
:104A9000030AD8B4DDD0770AD8B4F5D0030AD8B465
:104AA000F2D0750AD8B4EFD01F0AD8B4ECD0010AFE
:104AB000D8B4E9D0030AD8B4E6D0010AD8B4E3D018
:104AC000070AD8B4E0D0010AD8B4FED0030AD8B49B
:104AD000FDD0010AD8B4FCD00F0AD8B4F9D0010A2D
:104AE000D8B4F6D0030AD8B464D1010AD8B46CD1D2
:104AF000070AD8B46DD1010AD8B46ED1030AD8B46C
:104B000076D189D189D188D1010E0101266F0001AA
:104B100083D1020E0101266F00017ED1030E010137
:104B2000266F000179D10101B52B00010101B52BE0
:104B300000010101B52B00010101B52B00010101AC
:104B4000B52B0001B5C1BAF158EC20F00101B45108
:104B500032080AE10001E4DCD89001010134356F2C
:104B60000234366F00017E83000156D1D9DC02C0C9
:104B7000BBF101C0BAF101C0BCF1AAEC20F04CD1EC
:104B8000BDDE4AD1040E0101266F000145D1080E99
:104B90000101266F000140D10C0E0101266F0001BA
:104BA0003BD10F0E0101266F000136D10101386B98
:104BB0008998000131D1B4DCF2CFBCF1F29EF86AE1
:104BC00002C0F7FF01C0F6FF0900F5500800F5CF5D
:104BD00003F0F86A0101BCBFF28EBA6F03C0BBF1EB
:104BE00003C0BDF1BC6F0001C9DC16D199DC02C065
:104BF000B7F101C0B6F194DC02C0B9F101C0B8F15F
:104C0000B9C1BBF1B8C1BAF19FEC1AF0B7C1BBF1A1
:104C1000B6C1BAF15ADE00D183DC02C0BBF101C0DB
:104C2000BAF10101BB6BBBC1BDF101C0BCF1000118
:104C3000A5DCF2D075DC02C0BBF102C0BAF1010103
:104C4000BB6BBBC1BDF102C0BCF1000197DCE4D07D
:104C50000101B451480804E3370EB45DB56F04D0C8
:104C6000490EB45D020FB56FB5C1BAF1000128EC71
:104C70001DF002C0BBF101C0BAF102C0BDF101C01C
:104C8000BCF17CDCC9D00101B4514E0804E3390EFB
:104C9000B45DB56F04D04F0EB45D020FB56FB5C1F2
:104CA000BAF1000128EC1DF002C0BBF1010102C005
:104CB000BAF1BB6BD890BB33BA33BBC1BDF1BAC13B
:104CC000BCF100015BDCA8D08C80A6D08C90A4D075
:104CD0000101BA6B000158EC20F0030E0101BA6F1C
:104CE000000158EC20F0010E0101BC6F00014CECFA
:104CF0001DF016DC01C0B5F10101B451570844E1C3
:104D0000FF0ED880B555196AF2BE198EF29ED96B86
:104D1000D86F000164EC15F019BEF28E196AF2BE6C
:104D2000198EF29E870E0101DB6F160EDA6F590E97
:104D3000D96F7A0ED86F03C0DFF102C0DEF101C077
:104D4000DDF100C0DCF100017FEC15F019BEF28E40
:104D5000196AF2BE198EF29E03C0DBF102C0DAF1CD
:104D600001C0D9F100C0D8F1FAEC15F019BEF28EED
:104D7000170ED88001540101B56FB5C1BCF1000117
:104D8000AAEC20F015D00101B451580806E1B5C1D4
:104D9000BBF10001C9DD0CD00101FF0EBA6FB5C136
:104DA000BBF10001ECD501C0BAF101C0BBF1BCDD23
:104DB00033D090EC22F002C0B7F101C0B6F1B6C119
:104DC000BAF115EC21F028D0C580C5B0FED724D0AB
:104DD000C584C5B4FED720D090EC22F002C0BBF150
:104DE00001C0BAF101C0BCF135EC21F015D090EC56
:104DF00022F002C0BBF101C0BAF101C000F043ECE7
:104E000021F001C0BAF10101BD6B01C0BCF100018C
:104E1000BEEC22F001D072DDE8EF2CF00101AF6BA7
:104E2000AE6BA6AF7DD0020E0001FB250101AE6F77
:104E3000000E0001FC210101AF6FB56BA6C1B4F1FA
:104E40003F0EB417B56BB4C1B5F1B46B00013BECC8
:104E500022F001500101B4270250B523D890B43597
:104E60000001FB6F0101B5350001FC6F3BEC22F046
:104E700002C0A9F101C0A8F10101A6AD15D0A76B30
:104E8000030EA825016E000EA921036E015003BE7A
:104E90000BD0035203E10150A75D06E200017AEC5A
:104EA00022F00101A72BECD7A76BA9BF15D0A953FE
:104EB00003E1A851A75D10E2000190EC22F002C0CE
:104EC000B5F101C0B4F102C0B7F101C0B6F1A6EC72
:104ED00022F00101A72BE9D7B76B82C0B6F1000120
:104EE000A6EC22F0AFC1B7F1AEC1B6F1A6EC22F04C
:104EF000020E0101A825016E000EA921036E0150CA
:104F00000001AC5D0101B46F000E0354B56FB76FC3
:104F1000B4C1B6F10001A6EC22F0E8EF2CF00101DB
:104F2000A651000A0001D8B490D0010AD8B497D095
:104F3000030AD8B4A2D0010AD8B4BAD0070AD8B4A8
:104F4000D5D0010AD8B411D1030AD8B430D1010A9E
:104F5000D8B469D10F0AD8B466D1010AD8B4AAD19D
:104F6000030AD8B4DFD1010AD8B4F9D1070AD8B4FA
:104F70001DD2010AD8B41DD2030AD8B41BD2010A2B
:104F8000D8B42FD21F0AD8B445D24F0AD8B449D2C8
:104F90004E0AD8B47DD2030AD8B4D7D2010AD8B405
:104FA000DBD2070AD8B4FBD2010AD8B403D3030A70
:104FB000D8B408D3010AD8B412D30F0AD8B40FD387
:104FC000010AD8B40CD3030AD8B409D3010AD8B45F
:104FD00006D3070AD8B403D3010AD8B400D3030A0E
:104FE000D8B4FDD2010AD8B4FAD23F0AD8B4F7D265
:104FF000010AD8B4F4D2030AD8B4A1EF2BF0010A05
:10500000D8B4B0EF2BF0070AD8B4CAEF2BF0010ADE
:10501000D8B4E9EF2BF0030AD8B417EF2CF0010A4B
:10502000D8B44BEF2CF00F0AD8B47BEF2CF0010A68
:10503000D8B4A3EF2CF0030AD8B4A6EF2CF0010AE1
:10504000D8B4B2EF2CF0E4EF2CF00101386B899862
:105050000001D66BD56BD86BD76BE8EF2CF03BEC2F
:1050600022F002C0B5F101C0B4F102C0BDF101C02F
:10507000BCF1BEEC22F0E8EF2CF03BEC22F001C0DA
:10508000B4F101C0B5F10101B46B00013BEC22F0B9
:1050900002C003F001500101B4270250B523B5C18D
:1050A000BDF1B4C1BCF10001BEEC22F0E8EF2CF080
:1050B000020EFB250101B46F000E0001FC2101016D
:1050C000B56FBD6FB4C1BCF10001BEEC22F03BEC8A
:1050D00022F002C003F001C002F0D890023603367D
:1050E0000250FB270350FC23E8EF2CF090EC22F059
:1050F00002C0AFF101C0AEF1FC510101AF5D0EE3A2
:1051000008E1AE510001FB5DD8A002D0010106D03C
:105110000101AFC1FCF0AEC1FBF024D0AFC1FCF087
:10512000AEC1FBF0000190EC22F002C0D8F001C04B
:10513000D7F0D85303E1D751010804E2D751D8B4CE
:10514000D807D707D72D02D0D8530CE0D8C0BDF16F
:10515000D7C0BCF1BEEC22F0FCC0BDF1FBC0BCF17D
:10516000BEEC22F00001E8EF2CF090EC22F00150B0
:10517000021009E090EC22F090EC22F002C0FCF06A
:1051800001C0FBF012D090EC22F002C0FCF001C094
:10519000FBF0FCC0BDF1FBC0BCF1BEEC22F0050E83
:1051A0000101BE6F0001BBEC18F0E8EF2CF03BEC06
:1051B00022F002C003F0D89001340101AE6F033435
:1051C000AF6F00017AEC22F002C0A9F101C0A8F192
:1051D000A9C1B7F1A8C1B6F1A6EC22F00101AE5108
:1051E000A825B46FAF51A921B56FB76FB4C1B6F19F
:1051F000B96B020EB86F0001D6EC22F002C003F0CA
:105200000150AD0FE96E000E0220EA6EECCFB5F151
:10521000ED52EFCFB4F1B5C1BDF1B4C1BCF1BEECFC
:1052200022F0E8EF2CF00101A651080807E1000187
:1052300090EC22F002C0AFF101C0AEF100017AECB7
:1052400022F002C0A9F101C0A8F17AEC22F002C05C
:10525000FCF001C0FBF07AEC22F002C0ABF101C01F
:10526000AAF10101ABBF07D0AB530AE100018251A3
:105270000101AA5D05E2000190EC22F0F2D70101E4
:10528000A9BF07D0A9530AE10001AC510101A85DF3
:1052900005E200017AEC22F00101F2D7A6510808DC
:1052A00007E1AFC1BDF1AEC1BCF10001BEEC22F01F
:1052B00000018ED390EC22F002C0D6F001C0D5F0F0
:1052C00090EC22F002C0D8F001C0D7F0FCC0BDF1D4
:1052D000FBC0BCF1BEEC22F0D85303E1D75101086A
:1052E00011E2D8C0BDF1D7C0BCF1BEEC22F0D6C0EF
:1052F000BDF1D5C0BCF1BEEC22F0D6C0FCF0D5C0EB
:10530000FBF00FD0D72D07D0D85305E1D6C0FCF065
:10531000D5C0FBF006D090EC22F002C0FCF001C03A
:10532000FBF056D390EC22F002C0A9F101C0A8F125
:1053300090EC22F002C0ABF101C0AAF10101AA5128
:10534000AB110BE0FCC0BDF1FBC0BCF10001BEEC39
:1053500022F0A9C1FCF0A8C1FBF0000139D390EC08
:1053600022F002C0A9F101C0A8F190EC22F002C025
:10537000ABF101C0AAF190EC22F002C0ADF101C086
:10538000ACF1FCC0BDF1FBC0BCF1BEEC22F00101F0
:10539000AC51AD1105E0ABC1FCF0AAC1FBF004D0EB
:1053A000A9C1FCF0A8C1FBF0000112D32CEC21F044
:1053B0000FD30ED390EC22F002C0D6F001C0D5F08E
:1053C000FCC0BDF1FBC0BCF1BEEC22F0D6C0BDF10B
:1053D000D5C0BCF1BEEC22F0D6C0FCF0D5C0FBF0CD
:1053E000F7D290EC22F002C0D6F001C0D5F0D86B15
:1053F000D76B0101BD6BBC6B0001BEEC22F0D6C0C7
:10540000BDF1D5C0BCF1BEEC22F0D6C0FCF0D5C0D9
:10541000FBF0DED290EC22F002C036F101C035F193
:10542000D7D2CE500101AE6FCFCFAFF1840EAE5FB9
:105430006D0EAF5BAFC1B8F1AEC1B7F1BA6B0A0E7A
:10544000B96F000100EC23F002C0B5F101C0B4F166
:10545000D8900101B437B537B5C1B8F1B4C1B7F1CF
:10546000010EBA6F2C0EB96F000100EC23F002C0E0
:10547000AFF101C0AEF101013A51AE273B51AF236C
:10548000AFC1BDF1AEC1BCF10001BEEC22F0A0D2B3
:10549000CE500101AE6FCFCFAFF1840EAE5F6D0E77
:1054A000AF5BAFC1B8F1AEC1B7F1BA6B0A0EB96F5D
:1054B000000100EC23F002C0B5F101C0B4F1D890B6
:1054C0000101B437B537B5C1B8F1B4C1B7F1010EB8
:1054D000BA6F2C0EB96F000100EC23F002C0B5F1D9
:1054E00001C0B4F102C0B8F101C0B7F10101BA6B5B
:1054F000640EB96F000100EC23F002C0AFF101C0EF
:10550000AEF1196AF2BE198EF29E3DC1D7F13CC1CF
:10551000D6F13BC1D5F13AC1D4F10101DB6BDA6BB5
:10552000D96B640ED86F0001A9EC17F019BEF28E8A
:1055300000500101AE270150AF23AFC1BDF1AEC194
:10554000BCF10001BEEC22F043D201013D6B3C6B8B
:105550003B6B3A6B00013CD290EC22F001C000F0B2
:1055600002C001F0026A036A03C0B3F102C0B2F1E3
:1055700001C0B1F100C0B0F1410EE96EB3C1B7F1A5
:10558000B2C1B6F1B1C1B5F1B0C1B4F123EF23F0AE
:10559000200E0101C06F000176EC1AF019D2010152
:1055A000BD6B31C1BCF10001BEEC22F00101326BD8
:1055B00000010ED20101BD6B32C1BCF10001BEEC95
:1055C00022F006D2EFEF23F002C0B5F101C0B4F132
:1055D00002C0BDF101C0BCF1BEEC22F0F9D190ECEB
:1055E00022F002C0ABF101C0AAF190EC22F002C09F
:1055F000A9F101C0A8F1170E0101A65DF50FD8B001
:1056000098D00B0F0001EAEF2CF00101AA51A82756
:10561000AB51A9238ED00101AA51A85FAB51A95B60
:1056200088D0A9C1B7F1A8C1B6F1ABC1B9F1AAC17F
:10563000B8F1D6EC22F002C0A9F101C0A8F1010135
:1056400078D0A9C1B5F1A8C1B4F1ABC1B7F1AAC175
:10565000B6F129EC24F002C0A9F101C0A8F10101C2
:1056600068D0A9C1B5F1A8C1B4F1ABC1B7F1AAC165
:10567000B6F129EC24F000C0A8F1010103C0A9F1A2
:1056800058D00101AA51A85D03E1AB51A95D02E028
:10569000000E01D0010EA96BA86F4BD00101ABAF7A
:1056A00003D0A9AF0CD002D0A9BF07D0AB51A95DE0
:1056B00004E305E1A851AA5D02E3000E01D0010E4A
:1056C000A96BA86F36D00101A9AF03D0ABAF0CD046
:1056D00002D0ABBF07D0A951AB5D04E305E1AA51ED
:1056E000A85D02E3000E01D0010EA96BA86F21D0C6
:1056F0000101A851A91103E0AA51AB1102E1000E6A
:1057000001D0010EA96BA86F14D00101A851A911F5
:1057100005E1AA51AB1102E1000E01D0010EA96B07
:10572000A86F07D00101AA51A81BAB51A91B01D03A
:105730000101A9C1BDF1A8C1BCF10001BEEC22F07C
:1057400047D190EC22F001500210000ED8B4010EA7
:105750000101B46FBD6BBC6F0001BEEC22F038D10B
:1057600090EC22F002C0AFF101C0AEF190EC22F05B
:1057700001C0A7F1D8900101A735036AD90FE96EDE
:10578000000E0320EA6EAFC1ECFFED52AEC1EFFF99
:1057900000011ED190EC22F002C0AFF101C0AEF1C9
:1057A000D8900101AE35026EAF35036E0250D90FAD
:1057B000E96E000E0320EA6EECCFB5F1ED52EFCFAB
:1057C000B4F1B5C1BDF1B4C1BCF10001BEEC22F031
:1057D000FFD090EC22F002C0ABF101C0AAF190EC36
:1057E00022F002C0B5F1D89001010134026EB53546
:1057F00002C0A8F1A96F000190EC22F001C0AEF147
:105800000101670E0224AF6FA851AE25B46FA951F4
:10581000AF21B56FBB6FB4C1BAF100019FEC1AF0B4
:10582000ABC1BBF1AAC1BAF165EC24F0D1D090ECC8
:1058300022F002C0B5F1D89001010134026EB535F5
:1058400002C0A8F1A96F000190EC22F001C0AEF1F6
:105850000101670E0224AF6FA851AE25B46FA951A4
:10586000AF21F2CFB6F1F29EF86AF76EB4C1F6FF3F
:105870000900F5500800F5CF03F0F86AB6BFF28EC4
:10588000AA6F03C0ABF1ABC1BDF1AAC1BCF100016D
:10589000BEEC22F09DD090EC22F002C0AFF101C02E
:1058A000AEF1FAC003F0F951F92BD8B4FA2BC00FBE
:1058B0000101B46F590E0320B56FBB6FB4C1BAF1CB
:1058C00000019FEC1AF0F92BD8B4FA2BAFC1BBF151
:1058D000AEC1BAF165EC24F0760E0101BB6F080E83
:1058E000BA6F00019FEC1AF0FAC0BBF1F9C0BAF12F
:1058F00065EC24F06DD0FAC003F0F951F92BD8B45F
:10590000FA2BC00F0101B46F590E0320F2CFB6F18C
:10591000F29EF86AF76EB4C1F6FF0900F550080070
:10592000F5CF03F0F86AB6BFF28EAE6F03C0AFF1E9
:105930000001F92BD8B4FA2BAFC1BDF1AEC1BCF157
:10594000BEEC22F045D0FA6BF96B42D090EC22F01D
:10595000D890010101340001F96F01010234000106
:10596000FA6F36D090EC22F002C0B5F1D890010168
:105970000134026EB53502C0A8F1A96FAF6BAE6BF2
:10598000A9BF1ED0AF51A95D1BE303E1A851AE5DD5
:1059900017E2C00EAE25B46F590EAF21B56FBB6FC5
:1059A000B4C1BAF100019FEC1AF00101BB6BBA6BF4
:1059B000000165EC24F00101AE2BD8B4AF2BE0D789
:1059C0000001FA6BF96B04D0A6C1B4F1E7EF24F043
:1059D000E8EF2EF0E824F76AF736EF0FF66E590E6F
:1059E000F7220A00F550FA6E0800F550F96E0A56D3
:1059F000165622564256625682569C56C656F05647
:105A00000A572457F86AD09E078EEA6AE96A226A22
:105A1000276A7A6B816B93829380770EC86E280E0B
:105A2000C66EC78EC79CD66BD56BD86BD76B7E9373
:105A30000101236B00017E957E970101256B266B8A
:105A4000276B286B040E2E6F2F6B306B326B336B12
:105A5000346B366B356B376B386B396B3D6B3C6B2E
:105A60003B6B3A6B3E6B3F6B546B556B566B976B56
:105A7000C150C00B0F09C16E070EB46E1E6A040E32
:105A80001F6E0C0E206E0001D96BDA6BDB6BDC6BCA
:105A9000DD6BDE6BDF6BE06BE16BE26BE36BE46BAA
:105AA000E56BE66BE76BE86BE96BEA6BEB6BEC6B5A
:105AB000ED6BEE6BEF6BF06BF16BF26BF36BF46B0A
:105AC000F56BF66BF76BF86BFF6B0101006B0E0E5D
:105AD000056F7C0E066F0B0E076F7C0E086F1D0E98
:105AE000096F7C0E0A6F1A0E0B6F7C0E0C6F0D0E79
:105AF0000D6F7C0E0E6F0A0E0F6F7C0E106F1C0E5A
:105B0000116F7C0E126F160E136F7C0E146F0C0E3D
:105B1000156F7C0E166F1F0E176F7C0E186F1B0E05
:105B2000196F7C0E1A6F170E1B6F7C0E1C6FFF0E09
:105B3000296F2A6F2B6F2C6F2D6FA36BA26B000147
:105B400096EC18F0010E0101A66F0001F2EC18F0BE
:105B5000ACEF19F0C0EF19F0F6EF19F0A7EF1BF05A
:105B600001011D510508D8A41FD11E51F80F3CE2B8
:105B7000080F0001FFEF2EF00101A36B010EA26FD1
:105B800033D000EF1DF001012FD01FC1BAF128EC76
:105B90001DF002C09BF101C09AF1010125D01FC187
:105BA000BAF158EC20F001011FD01FC1BCF1AAECE2
:105BB00020F0010119D021C1BAF115EC21F0010149
:105BC00013D021C1A4F120C1A5F120EF21F00101E2
:105BD0000BD01FC1A4F120C1A5F121C1A6F151EF45
:105BE00021F0010101D001011E2D1BD09BC1A4F1A8
:105BF000A56B9AC1A6F1A76B550EAC6F0001B8EC6E
:105C00001AF0FF0E0101AC6F0001B8EC1AF0A4C14C
:105C1000ACF1B8EC1AF0A6C1ACF1B8EC1AF02AD08D
:105C20000101550EAC6F0001B8EC1AF0FF0E010136
:105C3000AC6F0001B8EC1AF0AA0E0101AC6F0001C4
:105C4000B8EC1AF00101A251A31114E0010EAC6FDF
:105C50000001B8EC1AF0F00E0101AC6F0001B8ECD5
:105C60001AF0010E0101AC6F0001B8EC1AF001014D
:105C7000A36BA26B01011E510608D8A492D01F513C
:105C80000308D8A48ED0A56B20C1A4F120C1A5F132
:105C9000A46B2151A427000EA523A4359C6FA53524
:105CA0009D6F9C379D379C379D379C379D379C3720
:105CB0009D37E00E9C179C5315E19D5313E1F2CFE5
:105CC000A4F1F29EF86A760EF76E080EF66E0900E1
:105CD000F5500800F5CF03F0F86AA4BFF28E9C6F70
:105CE00003C09DF1D8909D339C339CC1A4F1A56B5A
:105CF0009DC1A6F1A76BEE0EAC6F0001B8EC1AF0D7
:105D0000110E0101AC6F0001B8EC1AF0A4C1ACF1A6
:105D1000B8EC1AF0A6C1ACF1B8EC1AF0D8900101B9
:105D20009C379D379F6B9E6B9F519D5D3AE303E1CE
:105D30009C519E5D36E2D8909E35026E9F35036E73
:105D40000250C00FA46F590E0320F2CFA6F1F29EAD
:105D5000F86AF76EA4C1F6FF0900F5500800F5CF08
:105D600003F0F86AA6BFF28EA06F03C0A1F1A0C134
:105D7000A4F1A56BA1C1A6F1A76BA0C1ACF1000174
:105D8000B8EC1AF0A6C1ACF1B8EC1AF0010E0101A2
:105D9000BE6F0001BBEC18F001019E2BD8B49F2B05
:105DA000C3D7010E1D6F04D00001FDEF21F00101EA
:105DB000385310E0355136110CE100013BEC22F074
:105DC00002C0A5F101C0A4F101C0A6F10EEF27F0B9
:105DD00001010CD037530AE0000196EC18F00101E4
:105DE000A66B0001F2EC18F00101376B3F51C808B7
:105DF00003E2010E1D6F3F6B0001ACD60300E824E7
:105E0000F76AF736190FF66E5E0EF7220A00F550A4
:105E1000FA6E0800F550F96E785B8A5B9E5BAA5BB0
:085E2000B65BC25BD25B825B42
:020000040030CA
:0E00000024CE2E1E008781000FC00FE00F409F
:00000001FF
;PIC18F4550
;CRC=50AA  CREATED="26-fev-14 15:21"
